:100000000C942A000C9447000C9447000C94470071
:100010000C9447000C9447000C9447000C94470044
:100020000C9447000C9447000C9447000C94470034
:100030000C9447000C9447000C9447000C94470024
:100040000C9447000C9447000C9447000C94470014
:100050000C94470011241FBECFE5D8E0DEBFCDBF12
:1000600010E0A0E6B0E0E8E8F2E002C005900D92F2
:10007000A637B107D9F710E0A6E7B0E001C01D929E
:10008000A637B107E1F70E942B010C9442010C94B2
:100090000000B89AB99ABA9ABB9ABC98BD98BE9813
:1000A000BF98B49AB59AB69AB79AC09AC19AC29AAA
:1000B000C39A089591E001C09F5FC09AC19AC29A05
:1000C000C39A892F8150813049F0813028F08230E5
:1000D00039F0833069F406C0C09813C0C19811C0CC
:1000E000C2980FC0C39888B388B388B388B306C0DA
:1000F00088B388B388B388B39430F0F280E690E098
:10010000089588B388B388B388B3D6CF9BB3282F1C
:10011000207F9F70922B9BBBC198C39A95E39A95C1
:10012000F1F70000C398EFE3FFE13197F1F700C06A
:1001300000009BB38295807F9F70892B8BBBC39AF5
:10014000F5E0FA95F1F70000C3988FE39FE101977E
:10015000F1F700C0000008958FEF8ABB8FE087BBE6
:10016000C2988FEF99EFA0E081509040A040E1F756
:1001700000C0000083E30E94860082E30E948600A4
:1001800088E20E9486008CE00E94860086E00E9441
:10019000860081E00E94860008959BB3282F207F6F
:1001A0009F70922B9BBBC19AC39A95E39A95F1F7E6
:1001B0000000C398EFE1F3E03197F1F700C00000D1
:1001C0009BB38295807F9F70892B8BBBC39AF5E38D
:1001D000FA95F1F70000C3988FE59DE60197F1F7D6
:1001E00000C000000895CF93DF93EC01888188233D
:1001F00031F021960E94CD0089918823D9F7DF91B3
:10020000CF910895CF93DF93EA01882341F46031C1
:1002100078F4862F8F7080680E94860009C0813034
:1002200039F4603128F4862F8F70806C0E9486002C
:10023000CE010E94F300DF91CF91089581E00E94EA
:1002400086008FE39FE10197F1F700C0000080E88E
:100250000E9486000895D09A0E94AC008CE00E9413
:10026000860080E065E041E650E00E94020181E006
:1002700063E048E650E00E9402010E9449000E94AB
:080280005A00FBCFF894FFCFF8
:1002880031736865686162004B696D6F2061626FE8
:06029800206E696B61009D
:00000001FF
